{
  "_format": "hh-sol-artifact-1",
  "contractName": "accountNFT",
  "sourceName": "contracts/accountNFT.sol",
  "abi": [
    {
      "inputs": [],
      "stateMutability": "nonpayable",
      "type": "constructor"
    },
    {
      "anonymous": false,
      "inputs": [
        {
          "indexed": true,
          "internalType": "address",
          "name": "owner",
          "type": "address"
        },
        {
          "indexed": true,
          "internalType": "address",
          "name": "approved",
          "type": "address"
        },
        {
          "indexed": true,
          "internalType": "uint256",
          "name": "tokenId",
          "type": "uint256"
        }
      ],
      "name": "Approval",
      "type": "event"
    },
    {
      "anonymous": false,
      "inputs": [
        {
          "indexed": true,
          "internalType": "address",
          "name": "owner",
          "type": "address"
        },
        {
          "indexed": true,
          "internalType": "address",
          "name": "operator",
          "type": "address"
        },
        {
          "indexed": false,
          "internalType": "bool",
          "name": "approved",
          "type": "bool"
        }
      ],
      "name": "ApprovalForAll",
      "type": "event"
    },
    {
      "anonymous": false,
      "inputs": [
        {
          "indexed": true,
          "internalType": "bytes32",
          "name": "role",
          "type": "bytes32"
        },
        {
          "indexed": true,
          "internalType": "bytes32",
          "name": "previousAdminRole",
          "type": "bytes32"
        },
        {
          "indexed": true,
          "internalType": "bytes32",
          "name": "newAdminRole",
          "type": "bytes32"
        }
      ],
      "name": "RoleAdminChanged",
      "type": "event"
    },
    {
      "anonymous": false,
      "inputs": [
        {
          "indexed": true,
          "internalType": "bytes32",
          "name": "role",
          "type": "bytes32"
        },
        {
          "indexed": true,
          "internalType": "address",
          "name": "account",
          "type": "address"
        },
        {
          "indexed": true,
          "internalType": "address",
          "name": "sender",
          "type": "address"
        }
      ],
      "name": "RoleGranted",
      "type": "event"
    },
    {
      "anonymous": false,
      "inputs": [
        {
          "indexed": true,
          "internalType": "bytes32",
          "name": "role",
          "type": "bytes32"
        },
        {
          "indexed": true,
          "internalType": "address",
          "name": "account",
          "type": "address"
        },
        {
          "indexed": true,
          "internalType": "address",
          "name": "sender",
          "type": "address"
        }
      ],
      "name": "RoleRevoked",
      "type": "event"
    },
    {
      "anonymous": false,
      "inputs": [
        {
          "indexed": true,
          "internalType": "address",
          "name": "from",
          "type": "address"
        },
        {
          "indexed": true,
          "internalType": "address",
          "name": "to",
          "type": "address"
        },
        {
          "indexed": true,
          "internalType": "uint256",
          "name": "tokenId",
          "type": "uint256"
        }
      ],
      "name": "Transfer",
      "type": "event"
    },
    {
      "inputs": [],
      "name": "DEFAULT_ADMIN_ROLE",
      "outputs": [
        {
          "internalType": "bytes32",
          "name": "",
          "type": "bytes32"
        }
      ],
      "stateMutability": "view",
      "type": "function"
    },
    {
      "inputs": [],
      "name": "MINTER_ROLE",
      "outputs": [
        {
          "internalType": "bytes32",
          "name": "",
          "type": "bytes32"
        }
      ],
      "stateMutability": "view",
      "type": "function"
    },
    {
      "inputs": [
        {
          "internalType": "address",
          "name": "to",
          "type": "address"
        },
        {
          "internalType": "uint256",
          "name": "tokenId",
          "type": "uint256"
        }
      ],
      "name": "approve",
      "outputs": [],
      "stateMutability": "nonpayable",
      "type": "function"
    },
    {
      "inputs": [
        {
          "internalType": "address",
          "name": "owner",
          "type": "address"
        }
      ],
      "name": "balanceOf",
      "outputs": [
        {
          "internalType": "uint256",
          "name": "",
          "type": "uint256"
        }
      ],
      "stateMutability": "view",
      "type": "function"
    },
    {
      "inputs": [
        {
          "internalType": "uint256",
          "name": "tokenId",
          "type": "uint256"
        }
      ],
      "name": "getApproved",
      "outputs": [
        {
          "internalType": "address",
          "name": "",
          "type": "address"
        }
      ],
      "stateMutability": "view",
      "type": "function"
    },
    {
      "inputs": [
        {
          "internalType": "bytes32",
          "name": "role",
          "type": "bytes32"
        }
      ],
      "name": "getRoleAdmin",
      "outputs": [
        {
          "internalType": "bytes32",
          "name": "",
          "type": "bytes32"
        }
      ],
      "stateMutability": "view",
      "type": "function"
    },
    {
      "inputs": [
        {
          "internalType": "bytes32",
          "name": "role",
          "type": "bytes32"
        },
        {
          "internalType": "address",
          "name": "account",
          "type": "address"
        }
      ],
      "name": "grantRole",
      "outputs": [],
      "stateMutability": "nonpayable",
      "type": "function"
    },
    {
      "inputs": [
        {
          "internalType": "bytes32",
          "name": "role",
          "type": "bytes32"
        },
        {
          "internalType": "address",
          "name": "account",
          "type": "address"
        }
      ],
      "name": "hasRole",
      "outputs": [
        {
          "internalType": "bool",
          "name": "",
          "type": "bool"
        }
      ],
      "stateMutability": "view",
      "type": "function"
    },
    {
      "inputs": [
        {
          "internalType": "address",
          "name": "owner",
          "type": "address"
        },
        {
          "internalType": "address",
          "name": "operator",
          "type": "address"
        }
      ],
      "name": "isApprovedForAll",
      "outputs": [
        {
          "internalType": "bool",
          "name": "",
          "type": "bool"
        }
      ],
      "stateMutability": "view",
      "type": "function"
    },
    {
      "inputs": [],
      "name": "name",
      "outputs": [
        {
          "internalType": "string",
          "name": "",
          "type": "string"
        }
      ],
      "stateMutability": "view",
      "type": "function"
    },
    {
      "inputs": [
        {
          "internalType": "uint256",
          "name": "tokenId",
          "type": "uint256"
        }
      ],
      "name": "ownerOf",
      "outputs": [
        {
          "internalType": "address",
          "name": "",
          "type": "address"
        }
      ],
      "stateMutability": "view",
      "type": "function"
    },
    {
      "inputs": [
        {
          "internalType": "bytes32",
          "name": "role",
          "type": "bytes32"
        },
        {
          "internalType": "address",
          "name": "account",
          "type": "address"
        }
      ],
      "name": "renounceRole",
      "outputs": [],
      "stateMutability": "nonpayable",
      "type": "function"
    },
    {
      "inputs": [
        {
          "internalType": "bytes32",
          "name": "role",
          "type": "bytes32"
        },
        {
          "internalType": "address",
          "name": "account",
          "type": "address"
        }
      ],
      "name": "revokeRole",
      "outputs": [],
      "stateMutability": "nonpayable",
      "type": "function"
    },
    {
      "inputs": [
        {
          "internalType": "address",
          "name": "to",
          "type": "address"
        }
      ],
      "name": "safeMint",
      "outputs": [],
      "stateMutability": "nonpayable",
      "type": "function"
    },
    {
      "inputs": [
        {
          "internalType": "address",
          "name": "from",
          "type": "address"
        },
        {
          "internalType": "address",
          "name": "to",
          "type": "address"
        },
        {
          "internalType": "uint256",
          "name": "tokenId",
          "type": "uint256"
        }
      ],
      "name": "safeTransferFrom",
      "outputs": [],
      "stateMutability": "nonpayable",
      "type": "function"
    },
    {
      "inputs": [
        {
          "internalType": "address",
          "name": "from",
          "type": "address"
        },
        {
          "internalType": "address",
          "name": "to",
          "type": "address"
        },
        {
          "internalType": "uint256",
          "name": "tokenId",
          "type": "uint256"
        },
        {
          "internalType": "bytes",
          "name": "data",
          "type": "bytes"
        }
      ],
      "name": "safeTransferFrom",
      "outputs": [],
      "stateMutability": "nonpayable",
      "type": "function"
    },
    {
      "inputs": [
        {
          "internalType": "address",
          "name": "operator",
          "type": "address"
        },
        {
          "internalType": "bool",
          "name": "approved",
          "type": "bool"
        }
      ],
      "name": "setApprovalForAll",
      "outputs": [],
      "stateMutability": "nonpayable",
      "type": "function"
    },
    {
      "inputs": [
        {
          "internalType": "bytes4",
          "name": "interfaceId",
          "type": "bytes4"
        }
      ],
      "name": "supportsInterface",
      "outputs": [
        {
          "internalType": "bool",
          "name": "",
          "type": "bool"
        }
      ],
      "stateMutability": "view",
      "type": "function"
    },
    {
      "inputs": [],
      "name": "symbol",
      "outputs": [
        {
          "internalType": "string",
          "name": "",
          "type": "string"
        }
      ],
      "stateMutability": "view",
      "type": "function"
    },
    {
      "inputs": [
        {
          "internalType": "uint256",
          "name": "tokenId",
          "type": "uint256"
        }
      ],
      "name": "tokenURI",
      "outputs": [
        {
          "internalType": "string",
          "name": "",
          "type": "string"
        }
      ],
      "stateMutability": "view",
      "type": "function"
    },
    {
      "inputs": [
        {
          "internalType": "address",
          "name": "from",
          "type": "address"
        },
        {
          "internalType": "address",
          "name": "to",
          "type": "address"
        },
        {
          "internalType": "uint256",
          "name": "tokenId",
          "type": "uint256"
        }
      ],
      "name": "transferFrom",
      "outputs": [],
      "stateMutability": "nonpayable",
      "type": "function"
    }
  ],
  "bytecode": "0x60806040523480156200001157600080fd5b50604080518082018252600b81526a1058d8dbdd5b9d0813919560aa1b6020808301918252835180850190945260048452631853919560e21b908401528151919291620000619160009162000160565b5080516200007790600190602084019062000160565b506200008991506000905033620000bb565b620000b57f9f2df0fed2c77648de5860a4cc508cd0818c85b8b8a1ab4ceeef8d981c8956a633620000bb565b62000242565b60008281526006602090815260408083206001600160a01b038516845290915290205460ff166200015c5760008281526006602090815260408083206001600160a01b03851684529091529020805460ff191660011790556200011b3390565b6001600160a01b0316816001600160a01b0316837f2f8788117e7eff1d82e926ec794901d17c78024a50270940304540a733656f0d60405160405180910390a45b5050565b8280546200016e9062000206565b90600052602060002090601f016020900481019282620001925760008555620001dd565b82601f10620001ad57805160ff1916838001178555620001dd565b82800160010185558215620001dd579182015b82811115620001dd578251825591602001919060010190620001c0565b50620001eb929150620001ef565b5090565b5b80821115620001eb5760008155600101620001f0565b600181811c908216806200021b57607f821691505b6020821081036200023c57634e487b7160e01b600052602260045260246000fd5b50919050565b61194480620002526000396000f3fe608060405234801561001057600080fd5b50600436106101375760003560e01c80636352211e116100b8578063a22cb4651161007c578063a22cb46514610292578063b88d4fde146102a5578063c87b56dd146102b8578063d5391393146102cb578063d547741f146102f2578063e985e9c51461030557600080fd5b80636352211e1461024957806370a082311461025c57806391d148541461026f57806395d89b4114610282578063a217fddf1461028a57600080fd5b8063248a9ca3116100ff578063248a9ca3146101cc5780632f2ff15d146101fd57806336568abe1461021057806340d097c31461022357806342842e0e1461023657600080fd5b806301ffc9a71461013c57806306fdde0314610164578063081812fc14610179578063095ea7b3146101a457806323b872dd146101b9575b600080fd5b61014f61014a3660046113b6565b610341565b60405190151581526020015b60405180910390f35b61016c610352565b60405161015b919061142b565b61018c61018736600461143e565b6103e4565b6040516001600160a01b03909116815260200161015b565b6101b76101b2366004611473565b61040b565b005b6101b76101c736600461149d565b610525565b6101ef6101da36600461143e565b60009081526006602052604090206001015490565b60405190815260200161015b565b6101b761020b3660046114d9565b610556565b6101b761021e3660046114d9565b61057b565b6101b7610231366004611505565b6105f9565b6101b761024436600461149d565b61061e565b61018c61025736600461143e565b610639565b6101ef61026a366004611505565b610699565b61014f61027d3660046114d9565b61071f565b61016c61074a565b6101ef600081565b6101b76102a0366004611520565b610759565b6101b76102b3366004611572565b610764565b61016c6102c636600461143e565b61079c565b6101ef7f9f2df0fed2c77648de5860a4cc508cd0818c85b8b8a1ab4ceeef8d981c8956a681565b6101b76103003660046114d9565b610810565b61014f61031336600461164e565b6001600160a01b03918216600090815260056020908152604080832093909416825291909152205460ff1690565b600061034c82610835565b92915050565b60606000805461036190611678565b80601f016020809104026020016040519081016040528092919081815260200182805461038d90611678565b80156103da5780601f106103af576101008083540402835291602001916103da565b820191906000526020600020905b8154815290600101906020018083116103bd57829003601f168201915b5050505050905090565b60006103ef8261085a565b506000908152600460205260409020546001600160a01b031690565b600061041682610639565b9050806001600160a01b0316836001600160a01b0316036104885760405162461bcd60e51b815260206004820152602160248201527f4552433732313a20617070726f76616c20746f2063757272656e74206f776e656044820152603960f91b60648201526084015b60405180910390fd5b336001600160a01b03821614806104a457506104a48133610313565b6105165760405162461bcd60e51b815260206004820152603d60248201527f4552433732313a20617070726f76652063616c6c6572206973206e6f7420746f60448201527f6b656e206f776e6572206f7220617070726f76656420666f7220616c6c000000606482015260840161047f565b61052083836108bc565b505050565b61052f338261092a565b61054b5760405162461bcd60e51b815260040161047f906116b2565b6105208383836109a9565b60008281526006602052604090206001015461057181610b0d565b6105208383610b17565b6001600160a01b03811633146105eb5760405162461bcd60e51b815260206004820152602f60248201527f416363657373436f6e74726f6c3a2063616e206f6e6c792072656e6f756e636560448201526e103937b632b9903337b91039b2b63360891b606482015260840161047f565b6105f58282610b9d565b5050565b600061060460075490565b9050610614600780546001019055565b6105f58282610c04565b61052083838360405180602001604052806000815250610764565b6000818152600260205260408120546001600160a01b03168061034c5760405162461bcd60e51b8152602060048201526018602482015277115490cdcc8c4e881a5b9d985b1a59081d1bdad95b88125160421b604482015260640161047f565b60006001600160a01b0382166107035760405162461bcd60e51b815260206004820152602960248201527f4552433732313a2061646472657373207a65726f206973206e6f7420612076616044820152683634b21037bbb732b960b91b606482015260840161047f565b506001600160a01b031660009081526003602052604090205490565b60009182526006602090815260408084206001600160a01b0393909316845291905290205460ff1690565b60606001805461036190611678565b6105f5338383610c1e565b61076e338361092a565b61078a5760405162461bcd60e51b815260040161047f906116b2565b61079684848484610cec565b50505050565b60606107a78261085a565b60006107be60408051602081019091526000815290565b905060008151116107de5760405180602001604052806000815250610809565b806107e884610d1f565b6040516020016107f99291906116ff565b6040516020818303038152906040525b9392505050565b60008281526006602052604090206001015461082b81610b0d565b6105208383610b9d565b60006001600160e01b03198216637965db0b60e01b148061034c575061034c82610db2565b6000818152600260205260409020546001600160a01b03166108b95760405162461bcd60e51b8152602060048201526018602482015277115490cdcc8c4e881a5b9d985b1a59081d1bdad95b88125160421b604482015260640161047f565b50565b600081815260046020526040902080546001600160a01b0319166001600160a01b03841690811790915581906108f182610639565b6001600160a01b03167f8c5be1e5ebec7d5bd14f71427d1e84f3dd0314c0f7b2291e5b200ac8c7c3b92560405160405180910390a45050565b60008061093683610639565b9050806001600160a01b0316846001600160a01b0316148061097d57506001600160a01b0380821660009081526005602090815260408083209388168352929052205460ff165b806109a15750836001600160a01b0316610996846103e4565b6001600160a01b0316145b949350505050565b826001600160a01b03166109bc82610639565b6001600160a01b0316146109e25760405162461bcd60e51b815260040161047f9061172e565b6001600160a01b038216610a445760405162461bcd60e51b8152602060048201526024808201527f4552433732313a207472616e7366657220746f20746865207a65726f206164646044820152637265737360e01b606482015260840161047f565b826001600160a01b0316610a5782610639565b6001600160a01b031614610a7d5760405162461bcd60e51b815260040161047f9061172e565b600081815260046020908152604080832080546001600160a01b03199081169091556001600160a01b0387811680865260038552838620805460001901905590871680865283862080546001019055868652600290945282852080549092168417909155905184937fddf252ad1be2c89b69c2b068fc378daa952ba7f163c4a11628f55a4df523b3ef91a4505050565b6108b98133610e02565b610b21828261071f565b6105f55760008281526006602090815260408083206001600160a01b03851684529091529020805460ff19166001179055610b593390565b6001600160a01b0316816001600160a01b0316837f2f8788117e7eff1d82e926ec794901d17c78024a50270940304540a733656f0d60405160405180910390a45050565b610ba7828261071f565b156105f55760008281526006602090815260408083206001600160a01b0385168085529252808320805460ff1916905551339285917ff6391f5c32d9c69d2a47ea670b442974b53935d1edc7fd64eb21e047a839171b9190a45050565b6105f5828260405180602001604052806000815250610e5b565b816001600160a01b0316836001600160a01b031603610c7f5760405162461bcd60e51b815260206004820152601960248201527f4552433732313a20617070726f766520746f2063616c6c657200000000000000604482015260640161047f565b6001600160a01b03838116600081815260056020908152604080832094871680845294825291829020805460ff191686151590811790915591519182527f17307eab39ab6107e8899845ad3d59bd9653f200f220920489ca2b5937696c31910160405180910390a3505050565b610cf78484846109a9565b610d0384848484610e8e565b6107965760405162461bcd60e51b815260040161047f90611773565b60606000610d2c83610f8f565b600101905060008167ffffffffffffffff811115610d4c57610d4c61155c565b6040519080825280601f01601f191660200182016040528015610d76576020820181803683370190505b5090508181016020015b600019016f181899199a1a9b1b9c1cb0b131b232b360811b600a86061a8153600a8504945084610d8057509392505050565b60006001600160e01b031982166380ac58cd60e01b1480610de357506001600160e01b03198216635b5e139f60e01b145b8061034c57506301ffc9a760e01b6001600160e01b031983161461034c565b610e0c828261071f565b6105f557610e1981611067565b610e24836020611079565b604051602001610e359291906117c5565b60408051601f198184030181529082905262461bcd60e51b825261047f9160040161142b565b610e658383611215565b610e726000848484610e8e565b6105205760405162461bcd60e51b815260040161047f90611773565b60006001600160a01b0384163b15610f8457604051630a85bd0160e11b81526001600160a01b0385169063150b7a0290610ed290339089908890889060040161183a565b6020604051808303816000875af1925050508015610f0d575060408051601f3d908101601f19168201909252610f0a91810190611877565b60015b610f6a573d808015610f3b576040519150601f19603f3d011682016040523d82523d6000602084013e610f40565b606091505b508051600003610f625760405162461bcd60e51b815260040161047f90611773565b805181602001fd5b6001600160e01b031916630a85bd0160e11b1490506109a1565b506001949350505050565b60008072184f03e93ff9f4daa797ed6e38ed64bf6a1f0160401b8310610fce5772184f03e93ff9f4daa797ed6e38ed64bf6a1f0160401b830492506040015b6d04ee2d6d415b85acef81000000008310610ffa576d04ee2d6d415b85acef8100000000830492506020015b662386f26fc10000831061101857662386f26fc10000830492506010015b6305f5e1008310611030576305f5e100830492506008015b612710831061104457612710830492506004015b60648310611056576064830492506002015b600a831061034c5760010192915050565b606061034c6001600160a01b03831660145b606060006110888360026118aa565b6110939060026118c9565b67ffffffffffffffff8111156110ab576110ab61155c565b6040519080825280601f01601f1916602001820160405280156110d5576020820181803683370190505b509050600360fc1b816000815181106110f0576110f06118e1565b60200101906001600160f81b031916908160001a905350600f60fb1b8160018151811061111f5761111f6118e1565b60200101906001600160f81b031916908160001a90535060006111438460026118aa565b61114e9060016118c9565b90505b60018111156111c6576f181899199a1a9b1b9c1cb0b131b232b360811b85600f1660108110611182576111826118e1565b1a60f81b828281518110611198576111986118e1565b60200101906001600160f81b031916908160001a90535060049490941c936111bf816118f7565b9050611151565b5083156108095760405162461bcd60e51b815260206004820181905260248201527f537472696e67733a20686578206c656e67746820696e73756666696369656e74604482015260640161047f565b6001600160a01b03821661126b5760405162461bcd60e51b815260206004820181905260248201527f4552433732313a206d696e7420746f20746865207a65726f2061646472657373604482015260640161047f565b6000818152600260205260409020546001600160a01b0316156112d05760405162461bcd60e51b815260206004820152601c60248201527f4552433732313a20746f6b656e20616c7265616479206d696e74656400000000604482015260640161047f565b6000818152600260205260409020546001600160a01b0316156113355760405162461bcd60e51b815260206004820152601c60248201527f4552433732313a20746f6b656e20616c7265616479206d696e74656400000000604482015260640161047f565b6001600160a01b038216600081815260036020908152604080832080546001019055848352600290915280822080546001600160a01b0319168417905551839291907fddf252ad1be2c89b69c2b068fc378daa952ba7f163c4a11628f55a4df523b3ef908290a45050565b6001600160e01b0319811681146108b957600080fd5b6000602082840312156113c857600080fd5b8135610809816113a0565b60005b838110156113ee5781810151838201526020016113d6565b838111156107965750506000910152565b600081518084526114178160208601602086016113d3565b601f01601f19169290920160200192915050565b60208152600061080960208301846113ff565b60006020828403121561145057600080fd5b5035919050565b80356001600160a01b038116811461146e57600080fd5b919050565b6000806040838503121561148657600080fd5b61148f83611457565b946020939093013593505050565b6000806000606084860312156114b257600080fd5b6114bb84611457565b92506114c960208501611457565b9150604084013590509250925092565b600080604083850312156114ec57600080fd5b823591506114fc60208401611457565b90509250929050565b60006020828403121561151757600080fd5b61080982611457565b6000806040838503121561153357600080fd5b61153c83611457565b91506020830135801515811461155157600080fd5b809150509250929050565b634e487b7160e01b600052604160045260246000fd5b6000806000806080858703121561158857600080fd5b61159185611457565b935061159f60208601611457565b925060408501359150606085013567ffffffffffffffff808211156115c357600080fd5b818701915087601f8301126115d757600080fd5b8135818111156115e9576115e961155c565b604051601f8201601f19908116603f011681019083821181831017156116115761161161155c565b816040528281528a602084870101111561162a57600080fd5b82602086016020830137600060208483010152809550505050505092959194509250565b6000806040838503121561166157600080fd5b61166a83611457565b91506114fc60208401611457565b600181811c9082168061168c57607f821691505b6020821081036116ac57634e487b7160e01b600052602260045260246000fd5b50919050565b6020808252602d908201527f4552433732313a2063616c6c6572206973206e6f7420746f6b656e206f776e6560408201526c1c881bdc88185c1c1c9bdd9959609a1b606082015260800190565b600083516117118184602088016113d3565b8351908301906117258183602088016113d3565b01949350505050565b60208082526025908201527f4552433732313a207472616e736665722066726f6d20696e636f72726563742060408201526437bbb732b960d91b606082015260800190565b60208082526032908201527f4552433732313a207472616e7366657220746f206e6f6e20455243373231526560408201527131b2b4bb32b91034b6b83632b6b2b73a32b960711b606082015260800190565b7f416363657373436f6e74726f6c3a206163636f756e74200000000000000000008152600083516117fd8160178501602088016113d3565b7001034b99036b4b9b9b4b733903937b6329607d1b601791840191820152835161182e8160288401602088016113d3565b01602801949350505050565b6001600160a01b038581168252841660208201526040810183905260806060820181905260009061186d908301846113ff565b9695505050505050565b60006020828403121561188957600080fd5b8151610809816113a0565b634e487b7160e01b600052601160045260246000fd5b60008160001904831182151516156118c4576118c4611894565b500290565b600082198211156118dc576118dc611894565b500190565b634e487b7160e01b600052603260045260246000fd5b60008161190657611906611894565b50600019019056fea2646970667358221220df3d8d67d7628cef0155dc6f803934093c8960bf6d4cbe6eb732d29c7b4b341164736f6c634300080d0033",
  "linkReferences": {},
  "deployedLinkReferences": {}
}