{
  "_format": "hh-sol-artifact-1",
  "contractName": "Account",
  "sourceName": "contracts/Account/Account.sol",
  "abi": [
    {
      "inputs": [
        {
          "internalType": "address",
          "name": "_guardian",
          "type": "address"
        },
        {
          "internalType": "address",
          "name": "entryPoint_",
          "type": "address"
        }
      ],
      "stateMutability": "nonpayable",
      "type": "constructor"
    },
    {
      "inputs": [],
      "name": "AccountLocked",
      "type": "error"
    },
    {
      "inputs": [],
      "name": "ExceedsMaxLockTime",
      "type": "error"
    },
    {
      "inputs": [],
      "name": "InvalidInput",
      "type": "error"
    },
    {
      "inputs": [],
      "name": "NotAuthorized",
      "type": "error"
    },
    {
      "inputs": [],
      "name": "OwnershipCycle",
      "type": "error"
    },
    {
      "inputs": [],
      "name": "UntrustedImplementation",
      "type": "error"
    },
    {
      "anonymous": false,
      "inputs": [
        {
          "indexed": false,
          "internalType": "address",
          "name": "previousAdmin",
          "type": "address"
        },
        {
          "indexed": false,
          "internalType": "address",
          "name": "newAdmin",
          "type": "address"
        }
      ],
      "name": "AdminChanged",
      "type": "event"
    },
    {
      "anonymous": false,
      "inputs": [
        {
          "indexed": true,
          "internalType": "address",
          "name": "beacon",
          "type": "address"
        }
      ],
      "name": "BeaconUpgraded",
      "type": "event"
    },
    {
      "anonymous": false,
      "inputs": [
        {
          "indexed": false,
          "internalType": "uint256",
          "name": "lockedUntil",
          "type": "uint256"
        }
      ],
      "name": "LockUpdated",
      "type": "event"
    },
    {
      "anonymous": false,
      "inputs": [
        {
          "indexed": false,
          "internalType": "address",
          "name": "owner",
          "type": "address"
        },
        {
          "indexed": false,
          "internalType": "bytes4",
          "name": "selector",
          "type": "bytes4"
        },
        {
          "indexed": false,
          "internalType": "address",
          "name": "implementation",
          "type": "address"
        }
      ],
      "name": "OverrideUpdated",
      "type": "event"
    },
    {
      "anonymous": false,
      "inputs": [
        {
          "indexed": false,
          "internalType": "address",
          "name": "owner",
          "type": "address"
        },
        {
          "indexed": false,
          "internalType": "address",
          "name": "caller",
          "type": "address"
        },
        {
          "indexed": false,
          "internalType": "bool",
          "name": "hasPermission",
          "type": "bool"
        }
      ],
      "name": "PermissionUpdated",
      "type": "event"
    },
    {
      "anonymous": false,
      "inputs": [
        {
          "indexed": true,
          "internalType": "address",
          "name": "target",
          "type": "address"
        },
        {
          "indexed": true,
          "internalType": "uint256",
          "name": "value",
          "type": "uint256"
        },
        {
          "indexed": false,
          "internalType": "bytes",
          "name": "data",
          "type": "bytes"
        }
      ],
      "name": "TransactionExecuted",
      "type": "event"
    },
    {
      "anonymous": false,
      "inputs": [
        {
          "indexed": true,
          "internalType": "address",
          "name": "implementation",
          "type": "address"
        }
      ],
      "name": "Upgraded",
      "type": "event"
    },
    {
      "stateMutability": "payable",
      "type": "fallback"
    },
    {
      "inputs": [],
      "name": "_entryPoint",
      "outputs": [
        {
          "internalType": "address",
          "name": "",
          "type": "address"
        }
      ],
      "stateMutability": "view",
      "type": "function"
    },
    {
      "inputs": [],
      "name": "entryPoint",
      "outputs": [
        {
          "internalType": "contract IEntryPoint",
          "name": "",
          "type": "address"
        }
      ],
      "stateMutability": "view",
      "type": "function"
    },
    {
      "inputs": [
        {
          "internalType": "address",
          "name": "to",
          "type": "address"
        },
        {
          "internalType": "uint256",
          "name": "value",
          "type": "uint256"
        },
        {
          "internalType": "bytes",
          "name": "data",
          "type": "bytes"
        }
      ],
      "name": "executeCall",
      "outputs": [
        {
          "internalType": "bytes",
          "name": "",
          "type": "bytes"
        }
      ],
      "stateMutability": "payable",
      "type": "function"
    },
    {
      "inputs": [],
      "name": "getNonce",
      "outputs": [
        {
          "internalType": "uint256",
          "name": "",
          "type": "uint256"
        }
      ],
      "stateMutability": "view",
      "type": "function"
    },
    {
      "inputs": [],
      "name": "guardian",
      "outputs": [
        {
          "internalType": "address",
          "name": "",
          "type": "address"
        }
      ],
      "stateMutability": "view",
      "type": "function"
    },
    {
      "inputs": [
        {
          "internalType": "address",
          "name": "caller",
          "type": "address"
        }
      ],
      "name": "isAuthorized",
      "outputs": [
        {
          "internalType": "bool",
          "name": "",
          "type": "bool"
        }
      ],
      "stateMutability": "view",
      "type": "function"
    },
    {
      "inputs": [],
      "name": "isLocked",
      "outputs": [
        {
          "internalType": "bool",
          "name": "",
          "type": "bool"
        }
      ],
      "stateMutability": "view",
      "type": "function"
    },
    {
      "inputs": [
        {
          "internalType": "bytes32",
          "name": "hash",
          "type": "bytes32"
        },
        {
          "internalType": "bytes",
          "name": "signature",
          "type": "bytes"
        }
      ],
      "name": "isValidSignature",
      "outputs": [
        {
          "internalType": "bytes4",
          "name": "magicValue",
          "type": "bytes4"
        }
      ],
      "stateMutability": "view",
      "type": "function"
    },
    {
      "inputs": [
        {
          "internalType": "uint256",
          "name": "_lockedUntil",
          "type": "uint256"
        }
      ],
      "name": "lock",
      "outputs": [],
      "stateMutability": "nonpayable",
      "type": "function"
    },
    {
      "inputs": [],
      "name": "lockedUntil",
      "outputs": [
        {
          "internalType": "uint256",
          "name": "",
          "type": "uint256"
        }
      ],
      "stateMutability": "view",
      "type": "function"
    },
    {
      "inputs": [],
      "name": "nonce",
      "outputs": [
        {
          "internalType": "uint256",
          "name": "",
          "type": "uint256"
        }
      ],
      "stateMutability": "view",
      "type": "function"
    },
    {
      "inputs": [
        {
          "internalType": "address",
          "name": "",
          "type": "address"
        },
        {
          "internalType": "address",
          "name": "",
          "type": "address"
        },
        {
          "internalType": "uint256[]",
          "name": "",
          "type": "uint256[]"
        },
        {
          "internalType": "uint256[]",
          "name": "",
          "type": "uint256[]"
        },
        {
          "internalType": "bytes",
          "name": "",
          "type": "bytes"
        }
      ],
      "name": "onERC1155BatchReceived",
      "outputs": [
        {
          "internalType": "bytes4",
          "name": "",
          "type": "bytes4"
        }
      ],
      "stateMutability": "view",
      "type": "function"
    },
    {
      "inputs": [
        {
          "internalType": "address",
          "name": "",
          "type": "address"
        },
        {
          "internalType": "address",
          "name": "",
          "type": "address"
        },
        {
          "internalType": "uint256",
          "name": "",
          "type": "uint256"
        },
        {
          "internalType": "uint256",
          "name": "",
          "type": "uint256"
        },
        {
          "internalType": "bytes",
          "name": "",
          "type": "bytes"
        }
      ],
      "name": "onERC1155Received",
      "outputs": [
        {
          "internalType": "bytes4",
          "name": "",
          "type": "bytes4"
        }
      ],
      "stateMutability": "view",
      "type": "function"
    },
    {
      "inputs": [
        {
          "internalType": "address",
          "name": "",
          "type": "address"
        },
        {
          "internalType": "address",
          "name": "",
          "type": "address"
        },
        {
          "internalType": "uint256",
          "name": "receivedTokenId",
          "type": "uint256"
        },
        {
          "internalType": "bytes",
          "name": "",
          "type": "bytes"
        }
      ],
      "name": "onERC721Received",
      "outputs": [
        {
          "internalType": "bytes4",
          "name": "",
          "type": "bytes4"
        }
      ],
      "stateMutability": "view",
      "type": "function"
    },
    {
      "inputs": [
        {
          "internalType": "address",
          "name": "",
          "type": "address"
        },
        {
          "internalType": "bytes4",
          "name": "",
          "type": "bytes4"
        }
      ],
      "name": "overrides",
      "outputs": [
        {
          "internalType": "address",
          "name": "",
          "type": "address"
        }
      ],
      "stateMutability": "view",
      "type": "function"
    },
    {
      "inputs": [],
      "name": "owner",
      "outputs": [
        {
          "internalType": "address",
          "name": "",
          "type": "address"
        }
      ],
      "stateMutability": "view",
      "type": "function"
    },
    {
      "inputs": [
        {
          "internalType": "address",
          "name": "",
          "type": "address"
        },
        {
          "internalType": "address",
          "name": "",
          "type": "address"
        }
      ],
      "name": "permissions",
      "outputs": [
        {
          "internalType": "bool",
          "name": "",
          "type": "bool"
        }
      ],
      "stateMutability": "view",
      "type": "function"
    },
    {
      "inputs": [],
      "name": "proxiableUUID",
      "outputs": [
        {
          "internalType": "bytes32",
          "name": "",
          "type": "bytes32"
        }
      ],
      "stateMutability": "view",
      "type": "function"
    },
    {
      "inputs": [
        {
          "internalType": "bytes4[]",
          "name": "selectors",
          "type": "bytes4[]"
        },
        {
          "internalType": "address[]",
          "name": "implementations",
          "type": "address[]"
        }
      ],
      "name": "setOverrides",
      "outputs": [],
      "stateMutability": "nonpayable",
      "type": "function"
    },
    {
      "inputs": [
        {
          "internalType": "address[]",
          "name": "callers",
          "type": "address[]"
        },
        {
          "internalType": "bool[]",
          "name": "_permissions",
          "type": "bool[]"
        }
      ],
      "name": "setPermissions",
      "outputs": [],
      "stateMutability": "nonpayable",
      "type": "function"
    },
    {
      "inputs": [
        {
          "internalType": "bytes4",
          "name": "interfaceId",
          "type": "bytes4"
        }
      ],
      "name": "supportsInterface",
      "outputs": [
        {
          "internalType": "bool",
          "name": "",
          "type": "bool"
        }
      ],
      "stateMutability": "view",
      "type": "function"
    },
    {
      "inputs": [],
      "name": "token",
      "outputs": [
        {
          "internalType": "uint256",
          "name": "chainId",
          "type": "uint256"
        },
        {
          "internalType": "address",
          "name": "tokenContract",
          "type": "address"
        },
        {
          "internalType": "uint256",
          "name": "tokenId",
          "type": "uint256"
        }
      ],
      "stateMutability": "view",
      "type": "function"
    },
    {
      "inputs": [
        {
          "internalType": "address",
          "name": "newImplementation",
          "type": "address"
        }
      ],
      "name": "upgradeTo",
      "outputs": [],
      "stateMutability": "nonpayable",
      "type": "function"
    },
    {
      "inputs": [
        {
          "internalType": "address",
          "name": "newImplementation",
          "type": "address"
        },
        {
          "internalType": "bytes",
          "name": "data",
          "type": "bytes"
        }
      ],
      "name": "upgradeToAndCall",
      "outputs": [],
      "stateMutability": "payable",
      "type": "function"
    },
    {
      "inputs": [
        {
          "components": [
            {
              "internalType": "address",
              "name": "sender",
              "type": "address"
            },
            {
              "internalType": "uint256",
              "name": "nonce",
              "type": "uint256"
            },
            {
              "internalType": "bytes",
              "name": "initCode",
              "type": "bytes"
            },
            {
              "internalType": "bytes",
              "name": "callData",
              "type": "bytes"
            },
            {
              "internalType": "uint256",
              "name": "callGasLimit",
              "type": "uint256"
            },
            {
              "internalType": "uint256",
              "name": "verificationGasLimit",
              "type": "uint256"
            },
            {
              "internalType": "uint256",
              "name": "preVerificationGas",
              "type": "uint256"
            },
            {
              "internalType": "uint256",
              "name": "maxFeePerGas",
              "type": "uint256"
            },
            {
              "internalType": "uint256",
              "name": "maxPriorityFeePerGas",
              "type": "uint256"
            },
            {
              "internalType": "bytes",
              "name": "paymasterAndData",
              "type": "bytes"
            },
            {
              "internalType": "bytes",
              "name": "signature",
              "type": "bytes"
            }
          ],
          "internalType": "struct UserOperation",
          "name": "userOp",
          "type": "tuple"
        },
        {
          "internalType": "bytes32",
          "name": "userOpHash",
          "type": "bytes32"
        },
        {
          "internalType": "uint256",
          "name": "missingAccountFunds",
          "type": "uint256"
        }
      ],
      "name": "validateUserOp",
      "outputs": [
        {
          "internalType": "uint256",
          "name": "validationData",
          "type": "uint256"
        }
      ],
      "stateMutability": "nonpayable",
      "type": "function"
    },
    {
      "stateMutability": "payable",
      "type": "receive"
    }
  ],
  "bytecode": "0x60e0604052306080523480156200001557600080fd5b50604051620027a7380380620027a78339810160408190526200003891620000aa565b6001600160a01b03821615806200005657506001600160a01b038116155b15620000755760405163b4fa3fb360e01b815260040160405180910390fd5b6001600160a01b0390811660a0521660c052620000e2565b80516001600160a01b0381168114620000a557600080fd5b919050565b60008060408385031215620000be57600080fd5b620000c9836200008d565b9150620000d9602084016200008d565b90509250929050565b60805160a05160c05161263a6200016d600039600081816102ca0152818161119701526114b00152600081816103bc015281816103f201528181610e5c01528181610f1801528181611049015281816112ff0152818161133a01526116b801526000818161089e015281816108e7015281816109a9015281816109e90152610a7c015261263a6000f3fe60806040526004361061016a5760003560e01c80639e5d4c49116100d1578063ce0617ec1161008a578063ee9c605411610064578063ee9c60541461047f578063f23a6e61146104c0578063fc0c546a146104e0578063fe9fbb801461051857610179565b8063ce0617ec14610434578063d087d2881461044a578063dd4670641461045f57610179565b80639e5d4c4914610361578063a4e2d63414610381578063affed0e014610398578063b0d691fe146103ad578063b3080c24146103e0578063bc197c811461041457610179565b80633a871cdd116101235780633a871cdd1461028a578063452a9320146102b85780634f1ef2861461030457806352d1902d146103175780637a8f73561461032c5780638da5cb5b1461034c57610179565b806301ffc9a714610181578063039721b1146101b6578063150b7a02146101d65780631626ba7e1461020f5780631f9838b51461022f5780633659cfe61461026a57610179565b3661017957610177610538565b005b610177610538565b34801561018d57600080fd5b506101a161019c366004611d05565b61059f565b60405190151581526020015b60405180910390f35b3480156101c257600080fd5b506101776101d1366004611d66565b61060e565b3480156101e257600080fd5b506101f66101f1366004611e9b565b6107df565b6040516001600160e01b031990911681526020016101ad565b34801561021b57600080fd5b506101f661022a366004611f06565b610852565b34801561023b57600080fd5b506101a161024a366004611f4c565b600260209081526000928352604080842090915290825290205460ff1681565b34801561027657600080fd5b50610177610285366004611f85565b610894565b34801561029657600080fd5b506102aa6102a5366004611fa2565b610979565b6040519081526020016101ad565b3480156102c457600080fd5b506102ec7f000000000000000000000000000000000000000000000000000000000000000081565b6040516001600160a01b0390911681526020016101ad565b610177610312366004611ff5565b61099f565b34801561032357600080fd5b506102aa610a6f565b34801561033857600080fd5b50610177610347366004611d66565b610b22565b34801561035857600080fd5b506102ec610cfb565b61037461036f36600461202e565b610d91565b6040516101ad919061210e565b34801561038d57600080fd5b5060005442106101a1565b3480156103a457600080fd5b506102aa610e3d565b3480156103b957600080fd5b507f00000000000000000000000000000000000000000000000000000000000000006102ec565b3480156103ec57600080fd5b506102ec7f000000000000000000000000000000000000000000000000000000000000000081565b34801561042057600080fd5b506101f661042f3660046121a0565b610ed5565b34801561044057600080fd5b506102aa60005481565b34801561045657600080fd5b506102aa610ef1565b34801561046b57600080fd5b5061017761047a36600461224d565b610f47565b34801561048b57600080fd5b506102ec61049a366004612266565b60016020908152600092835260408084209091529082529020546001600160a01b031681565b3480156104cc57600080fd5b506101f66104db366004612294565b611011565b3480156104ec57600080fd5b506104f561102d565b604080519384526001600160a01b039092166020840152908201526060016101ad565b34801561052457600080fd5b506101a1610533366004611f85565b611045565b600060016000610546610cfb565b6001600160a01b039081168252602080830193909352604091820160009081206001600160e01b03198235168252909352912054169050801561059c576000610592823460003661121f565b9050805160208201f35b50565b6000806001600160e01b031983166301ffc9a760e01b14806105d157506001600160e01b03198316630271189760e51b145b806105ec57506001600160e01b03198316630801407360e31b145b905080156105fd5750600192915050565b61060561129b565b50600092915050565b60005442101561063157604051636315bfbb60e01b815260040160405180910390fd5b600061063b610cfb565b9050336001600160a01b038216146106665760405163ea8e4eb560e01b815260040160405180910390fd5b838281146106875760405163b4fa3fb360e01b815260040160405180910390fd5b60005b818110156107ce578484828181106106a4576106a46122fc565b90506020020160208101906106b99190612320565b6001600160a01b0384166000908152600260205260408120908989858181106106e4576106e46122fc565b90506020020160208101906106f99190611f85565b6001600160a01b031681526020810191909152604001600020805460ff19169115159190911790557f394777a58092892d136a90c4bb7e4350c72ac50fba6a0208128677f36527dcf583888884818110610755576107556122fc565b905060200201602081019061076a9190611f85565b87878581811061077c5761077c6122fc565b90506020020160208101906107919190612320565b604080516001600160a01b03948516815293909216602084015215159082015260600160405180910390a1806107c681612353565b91505061068a565b506107d76112f4565b505050505050565b60006107e961129b565b60008060006107f66113a1565b925092509250468314801561081357506001600160a01b03821633145b801561081e57508581145b1561083c5760405163b79e3f3f60e01b815260040160405180910390fd5b50630a85bd0160e11b925050505b949350505050565b600061085c61129b565b6000610870610869610cfb565b85856113f4565b905080156108885750630b135d3f60e11b905061088e565b60009150505b92915050565b6001600160a01b037f00000000000000000000000000000000000000000000000000000000000000001630036108e55760405162461bcd60e51b81526004016108dc9061236c565b60405180910390fd5b7f00000000000000000000000000000000000000000000000000000000000000006001600160a01b031661092e6000805160206125be833981519152546001600160a01b031690565b6001600160a01b0316146109545760405162461bcd60e51b81526004016108dc906123b8565b61095d81611455565b6040805160008082526020820190925261059c9183919061153d565b60006109836116ad565b61098d8484611725565b905061099882611801565b9392505050565b6001600160a01b037f00000000000000000000000000000000000000000000000000000000000000001630036109e75760405162461bcd60e51b81526004016108dc9061236c565b7f00000000000000000000000000000000000000000000000000000000000000006001600160a01b0316610a306000805160206125be833981519152546001600160a01b031690565b6001600160a01b031614610a565760405162461bcd60e51b81526004016108dc906123b8565b610a5f82611455565b610a6b8282600161153d565b5050565b6000306001600160a01b037f00000000000000000000000000000000000000000000000000000000000000001614610b0f5760405162461bcd60e51b815260206004820152603860248201527f555550535570677261646561626c653a206d757374206e6f742062652063616c60448201527f6c6564207468726f7567682064656c656761746563616c6c000000000000000060648201526084016108dc565b506000805160206125be83398151915290565b600054421015610b4557604051636315bfbb60e01b815260040160405180910390fd5b6000610b4f610cfb565b9050336001600160a01b03821614610b7a5760405163ea8e4eb560e01b815260040160405180910390fd5b83828114610b9b5760405163b4fa3fb360e01b815260040160405180910390fd5b60005b818110156107ce57848482818110610bb857610bb86122fc565b9050602002016020810190610bcd9190611f85565b6001600160a01b038416600090815260016020526040812090898985818110610bf857610bf86122fc565b9050602002016020810190610c0d9190611d05565b6001600160e01b0319168152602081019190915260400160002080546001600160a01b0319166001600160a01b03929092169190911790557f2c722487e90aca38ec1b074c3403210bd2bfb769b4da7f12f7bf0b9e37517c1883888884818110610c7957610c796122fc565b9050602002016020810190610c8e9190611d05565b878785818110610ca057610ca06122fc565b9050602002016020810190610cb59190611f85565b604080516001600160a01b0394851681526001600160e01b031993909316602084015292168183015290519081900360600190a180610cf381612353565b915050610b9e565b600080600080610d096113a1565b925092509250468314610d20576000935050505090565b6040516331a9108f60e11b8152600481018290526001600160a01b03831690636352211e90602401602060405180830381865afa158015610d65573d6000803e3d6000fd5b505050506040513d601f19601f82011682018060405250810190610d899190612404565b935050505090565b6060610d9c33611045565b610db95760405163ea8e4eb560e01b815260040160405180910390fd5b600054421015610ddc57604051636315bfbb60e01b815260040160405180910390fd5b83856001600160a01b03167f47d99ad340f52da66535aff7e10da1ceb85a32bcbd9fa1c42314d194545e14d28585604051610e1892919061244a565b60405180910390a3610e286112f4565b610e348585858561121f565b95945050505050565b604051631aab3f0d60e11b8152306004820152600060248201819052907f00000000000000000000000000000000000000000000000000000000000000006001600160a01b0316906335567e1a906044015b602060405180830381865afa158015610eac573d6000803e3d6000fd5b505050506040513d601f19601f82011682018060405250810190610ed0919061245e565b905090565b6000610edf61129b565b5063bc197c8160e01b95945050505050565b604051631aab3f0d60e11b8152306004820152600060248201819052906001600160a01b037f000000000000000000000000000000000000000000000000000000000000000016906335567e1a90604401610e8f565b610f4f610cfb565b6001600160a01b0316336001600160a01b031614610f805760405163ea8e4eb560e01b815260040160405180910390fd5b600054421015610fa357604051636315bfbb60e01b815260040160405180910390fd5b610fb1426301e13380612477565b811115610fd1576040516301814f7d60e31b815260040160405180910390fd5b60008190556040518181527fa7b24c66dd3269a292a60b3facdbb8f3e7557d1e19e64d99e0d6ee7250be63ad9060200160405180910390a161059c6112f4565b600061101b61129b565b5063f23a6e6160e01b95945050505050565b600080600061103a6113a1565b925092509250909192565b60007f00000000000000000000000000000000000000000000000000000000000000006001600160a01b0316826001600160a01b03160361108857506001919050565b60008060006110956113a1565b9250925092506000826001600160a01b0316636352211e836040518263ffffffff1660e01b81526004016110cb91815260200190565b602060405180830381865afa1580156110e8573d6000803e3d6000fd5b505050506040513d601f19601f8201168201806040525081019061110c9190612404565b9050806001600160a01b0316866001600160a01b0316036111335750600195945050505050565b6001600160a01b038082166000908152600260209081526040808320938a168352929052205460ff161561116d5750600195945050505050565b46841415801561120257506040516333932be560e11b81526001600160a01b0387811660048301527f0000000000000000000000000000000000000000000000000000000000000000169063672657ca90602401602060405180830381865afa1580156111de573d6000803e3d6000fd5b505050506040513d601f19601f82011682018060405250810190611202919061248f565b156112135750600195945050505050565b50600095945050505050565b60606000856001600160a01b031685858560405161123e9291906124ac565b60006040518083038185875af1925050503d806000811461127b576040519150601f19603f3d011682016040523d82523d6000602084013e611280565b606091505b50925090508061129257815160208301fd5b50949350505050565b6000600160006112a9610cfb565b6001600160a01b039081168252602080830193909352604091820160009081206001600160e01b03198235168252909352912054169050801561059c5760006105928260003661185a565b336001600160a01b037f0000000000000000000000000000000000000000000000000000000000000000161461139f57604051630bd28e3b60e01b8152600060048201527f00000000000000000000000000000000000000000000000000000000000000006001600160a01b031690630bd28e3b90602401600060405180830381600087803b15801561138657600080fd5b505af115801561139a573d6000803e3d6000fd5b505050505b565b604080516060808252608082019092526000918291829182919060208201818036833701905050905060ad604d60208301303c808060200190518101906113e891906124bc565b93509350935050909192565b600080600061140385856118d2565b9092509050600081600481111561141c5761141c6124f5565b14801561143a5750856001600160a01b0316826001600160a01b0316145b8061144b575061144b868686611917565b9695505050505050565b61145d610cfb565b6001600160a01b0316336001600160a01b03161461148e5760405163ea8e4eb560e01b815260040160405180910390fd5b604051631506fd4d60e01b81526001600160a01b0382811660048301526000917f000000000000000000000000000000000000000000000000000000000000000090911690631506fd4d90602401602060405180830381865afa1580156114f9573d6000803e3d6000fd5b505050506040513d601f19601f8201168201806040525081019061151d919061248f565b905080610a6b57604051635abead2f60e11b815260040160405180910390fd5b7f4910fdfa16fed3260ed0e7147f7cc6da11a60208b5b9406d12a635614ffd91435460ff16156115755761157083611a03565b505050565b826001600160a01b03166352d1902d6040518163ffffffff1660e01b8152600401602060405180830381865afa9250505080156115cf575060408051601f3d908101601f191682019092526115cc9181019061245e565b60015b6116325760405162461bcd60e51b815260206004820152602e60248201527f45524331393637557067726164653a206e657720696d706c656d656e7461746960448201526d6f6e206973206e6f74205555505360901b60648201526084016108dc565b6000805160206125be83398151915281146116a15760405162461bcd60e51b815260206004820152602960248201527f45524331393637557067726164653a20756e737570706f727465642070726f786044820152681a58589b195555525160ba1b60648201526084016108dc565b50611570838383611a9f565b336001600160a01b037f0000000000000000000000000000000000000000000000000000000000000000161461139f5760405162461bcd60e51b815260206004820152601c60248201527f6163636f756e743a206e6f742066726f6d20456e747279506f696e740000000060448201526064016108dc565b600080630b135d3f60e11b30631626ba7e61176d867f19457468657265756d205369676e6564204d6573736167653a0a3332000000006000908152601c91909152603c902090565b61177b61014089018961250b565b6040518463ffffffff1660e01b815260040161179993929190612551565b602060405180830381865afa1580156117b6573d6000803e3d6000fd5b505050506040513d601f19601f820116820180604052508101906117da919061256b565b6001600160e01b03191614905080156117f757600091505061088e565b5060019392505050565b801561059c57604051600090339060001990849084818181858888f193505050503d806000811461184e576040519150601f19603f3d011682016040523d82523d6000602084013e611853565b606091505b5050505050565b60606000846001600160a01b031684846040516118789291906124ac565b600060405180830381855afa9150503d80600081146118b3576040519150601f19603f3d011682016040523d82523d6000602084013e6118b8565b606091505b5092509050806118ca57815160208301fd5b509392505050565b60008082516041036119085760208301516040840151606085015160001a6118fc87828585611ac4565b94509450505050611910565b506000905060025b9250929050565b6000806000856001600160a01b0316631626ba7e60e01b8686604051602401611941929190612588565b60408051601f198184030181529181526020820180516001600160e01b03166001600160e01b031990941693909317909252905161197f91906125a1565b600060405180830381855afa9150503d80600081146119ba576040519150601f19603f3d011682016040523d82523d6000602084013e6119bf565b606091505b50915091508180156119d357506020815110155b801561144b57508051630b135d3f60e11b906119f8908301602090810190840161245e565b149695505050505050565b6001600160a01b0381163b611a705760405162461bcd60e51b815260206004820152602d60248201527f455243313936373a206e657720696d706c656d656e746174696f6e206973206e60448201526c1bdd08184818dbdb9d1c9858dd609a1b60648201526084016108dc565b6000805160206125be83398151915280546001600160a01b0319166001600160a01b0392909216919091179055565b611aa883611b88565b600082511180611ab55750805b156115705761139a8383611bc8565b6000807f7fffffffffffffffffffffffffffffff5d576e7357a4501ddfe92f46681b20a0831115611afb5750600090506003611b7f565b6040805160008082526020820180845289905260ff881692820192909252606081018690526080810185905260019060a0016020604051602081039080840390855afa158015611b4f573d6000803e3d6000fd5b5050604051601f1901519150506001600160a01b038116611b7857600060019250925050611b7f565b9150600090505b94509492505050565b611b9181611a03565b6040516001600160a01b038216907fbc7cd75a20ee27fd9adebab32041f755214dbc6bffa90cc0225b39da2e5c2d3b90600090a250565b606061099883836040518060600160405280602781526020016125de602791396060600080856001600160a01b031685604051611c0591906125a1565b600060405180830381855af49150503d8060008114611c40576040519150601f19603f3d011682016040523d82523d6000602084013e611c45565b606091505b509150915061144b8683838760608315611cc0578251600003611cb9576001600160a01b0385163b611cb95760405162461bcd60e51b815260206004820152601d60248201527f416464726573733a2063616c6c20746f206e6f6e2d636f6e747261637400000060448201526064016108dc565b508161084a565b61084a8383815115611cd55781518083602001fd5b8060405162461bcd60e51b81526004016108dc919061210e565b6001600160e01b03198116811461059c57600080fd5b600060208284031215611d1757600080fd5b813561099881611cef565b60008083601f840112611d3457600080fd5b5081356001600160401b03811115611d4b57600080fd5b6020830191508360208260051b850101111561191057600080fd5b60008060008060408587031215611d7c57600080fd5b84356001600160401b0380821115611d9357600080fd5b611d9f88838901611d22565b90965094506020870135915080821115611db857600080fd5b50611dc587828801611d22565b95989497509550505050565b6001600160a01b038116811461059c57600080fd5b634e487b7160e01b600052604160045260246000fd5b604051601f8201601f191681016001600160401b0381118282101715611e2457611e24611de6565b604052919050565b600082601f830112611e3d57600080fd5b81356001600160401b03811115611e5657611e56611de6565b611e69601f8201601f1916602001611dfc565b818152846020838601011115611e7e57600080fd5b816020850160208301376000918101602001919091529392505050565b60008060008060808587031215611eb157600080fd5b8435611ebc81611dd1565b93506020850135611ecc81611dd1565b92506040850135915060608501356001600160401b03811115611eee57600080fd5b611efa87828801611e2c565b91505092959194509250565b60008060408385031215611f1957600080fd5b8235915060208301356001600160401b03811115611f3657600080fd5b611f4285828601611e2c565b9150509250929050565b60008060408385031215611f5f57600080fd5b8235611f6a81611dd1565b91506020830135611f7a81611dd1565b809150509250929050565b600060208284031215611f9757600080fd5b813561099881611dd1565b600080600060608486031215611fb757600080fd5b83356001600160401b03811115611fcd57600080fd5b84016101608187031215611fe057600080fd5b95602085013595506040909401359392505050565b6000806040838503121561200857600080fd5b823561201381611dd1565b915060208301356001600160401b03811115611f3657600080fd5b6000806000806060858703121561204457600080fd5b843561204f81611dd1565b93506020850135925060408501356001600160401b038082111561207257600080fd5b818701915087601f83011261208657600080fd5b81358181111561209557600080fd5b8860208285010111156120a757600080fd5b95989497505060200194505050565b60005b838110156120d15781810151838201526020016120b9565b8381111561139a5750506000910152565b600081518084526120fa8160208601602086016120b6565b601f01601f19169290920160200192915050565b60208152600061099860208301846120e2565b600082601f83011261213257600080fd5b813560206001600160401b0382111561214d5761214d611de6565b8160051b61215c828201611dfc565b928352848101820192828101908785111561217657600080fd5b83870192505b848310156121955782358252918301919083019061217c565b979650505050505050565b600080600080600060a086880312156121b857600080fd5b85356121c381611dd1565b945060208601356121d381611dd1565b935060408601356001600160401b03808211156121ef57600080fd5b6121fb89838a01612121565b9450606088013591508082111561221157600080fd5b61221d89838a01612121565b9350608088013591508082111561223357600080fd5b5061224088828901611e2c565b9150509295509295909350565b60006020828403121561225f57600080fd5b5035919050565b6000806040838503121561227957600080fd5b823561228481611dd1565b91506020830135611f7a81611cef565b600080600080600060a086880312156122ac57600080fd5b85356122b781611dd1565b945060208601356122c781611dd1565b9350604086013592506060860135915060808601356001600160401b038111156122f057600080fd5b61224088828901611e2c565b634e487b7160e01b600052603260045260246000fd5b801515811461059c57600080fd5b60006020828403121561233257600080fd5b813561099881612312565b634e487b7160e01b600052601160045260246000fd5b6000600182016123655761236561233d565b5060010190565b6020808252602c908201527f46756e6374696f6e206d7573742062652063616c6c6564207468726f7567682060408201526b19195b1959d85d1958d85b1b60a21b606082015260800190565b6020808252602c908201527f46756e6374696f6e206d7573742062652063616c6c6564207468726f7567682060408201526b6163746976652070726f787960a01b606082015260800190565b60006020828403121561241657600080fd5b815161099881611dd1565b81835281816020850137506000828201602090810191909152601f909101601f19169091010190565b60208152600061084a602083018486612421565b60006020828403121561247057600080fd5b5051919050565b6000821982111561248a5761248a61233d565b500190565b6000602082840312156124a157600080fd5b815161099881612312565b8183823760009101908152919050565b6000806000606084860312156124d157600080fd5b8351925060208401516124e381611dd1565b80925050604084015190509250925092565b634e487b7160e01b600052602160045260246000fd5b6000808335601e1984360301811261252257600080fd5b8301803591506001600160401b0382111561253c57600080fd5b60200191503681900382131561191057600080fd5b838152604060208201526000610e34604083018486612421565b60006020828403121561257d57600080fd5b815161099881611cef565b82815260406020820152600061084a60408301846120e2565b600082516125b38184602087016120b6565b919091019291505056fe360894a13ba1a3210667c828492db98dca3e2076cc3735a920a3ca505d382bbc416464726573733a206c6f772d6c6576656c2064656c65676174652063616c6c206661696c6564a26469706673582212203df70205ff2d172f5efc6da7b3a739d09e569333d3208e33d3649c90b3a41ead64736f6c634300080d0033",
  "linkReferences": {},
  "deployedLinkReferences": {}
}